15:01:44.464011 IP 10.0.21.199.rusb-sys-port > 10.0.21.255.rusb-sys-port: UDP, length 22
	0x0000:  ffff ffff ffff 0037 7600 0001 0800 4500
	0x0010:  0032 0000 0000 4011 3af6 0a00 15c7 0a00
	0x0020:  15ff 0d5e 0d5e 001e 0000 be9b e955 0000
	0x0030:  0001 0203 0405 0607 0809 0a0b 0c0d 0e0f
15:01:44.587180 IP 192.168.1.1.46521 > 192.168.1.2.rusb-sys-port: UDP, length 22
	0x0000:  0037 7600 0001 90e2 ba5d 91d0 0800 4500
	0x0010:  0032 0000 4000 4011 b767 c0a8 0101 c0a8
	0x0020:  0102 b5b9 0d5e 001e 8383 be9b e955 0000
	0x0030:  0100 0040 ff01 3412 0000 00d0 f400 7030
